S00F00004961725663616E2E7372656371
S1130000F8FF0020110400000F4500000F45000018
S11300100F4500000F4500000F4500000F4500008C
S11300200F4500000F4500000F4500000F4500007C
S11300300F4500000F4500000F4500000F4500006C
S11300400F4500000F4500000F4500000F4500005C
S1130400FFFFFFFFFFFFFFFFFFFFFFFFFEFFFFFFF9
S113041062B605F073FAFEE72DE9F14FB0B09246EB
S113042004910DF142013A9A2B9199464A700020A9
S11304300AE01AF8011B0498309A904700280490A7
S113044000F0B6860D98401C0D909AF8000050B14B
S11304502528EED1002100220791089209910A92E1
S11304600B910C9204E00D9800F0A4BE41F0010140
S11304701AF8010F2028F9D023280CD02B2804D0F7
S11304802D2805D0302809D00BE041F00201EFE718
S113049041F00401ECE741F00801E9E741F0100103
S11304A0E6E72A280FD1D9F8002052F8040BC9F83E
S11304B0002000280F9003D540420F9041F0040122
S11304C00AF1010A14E00F92DFF828380AE00F98C5
S11304D0984205DA00EB800402EB4402303A0F92B2
S11304E00AF1010A9AF80020A2F130000A28EED39A
S11304F09AF800002E2803D04FF0FF320E9229E024
S11305001AF8010F2A2809D1D9F8000050F8042B51
S1130510C9F800000E920AF1010A1BE02D280CBF55
S11305200AF1010A002000220E92DFF8C8470BE00E
S113053040B90E9AA24205DA02EB820503EB4503A9
S1130540303B0E930AF1010A9AF80030A3F130020D
S11305500A2AEDD3ADF84010DFF89C07784400F583
S1130560F3609AF8001000F057FF08B11AF8010B75
S11305708DF842009DF84200682805D19AF80000E1
S113058068280CD1622106E06C2804BF9AF80000A8
S11305906C2804D171218DF842100AF1010A12A8C5
S11305A006901AF801BBBBF125012CD01C3900F0D0
S11305B0D081091F022940F2CC81133900F0238530
S11305C0093900F0C681891E00F0B885491E00F083
S11305D06585491E022940F2BC81091F00F05E8531
S11305E0491F00F02881491E00F00D85491E00F0C6
S11305F0D080C91E0DD0891E00F00585C91E00F0EB
S1130600028500F0A6BD25238DF84830012100F0B5
S1130610ABBDD9F8000050F8044BC9F80000002C19
S1130620059440F0A3802B994878002800F0998025
S11306304FF0FF340FF6843000F0FAFE201A40F039
S1130640B78500F092BD6D1E40F0A9853096079DD8
S113065012AF75B1309E17F8012B02A9304600F095
S113066073FE002801D46D1EF5D10028309640F0A9
S11306709F850A9D3020002D8DF804000CDD309EEE
S1130680012301AA02A9304600F06EFE002840F0C2
S11306908F856D1EF4D13096059F089D75B1309EEF
S11306A017F8012B02A9304600F04EFE002801D4B1
S11306B06D1EF5D10028309640F07A850B9D3020D0
S11306C0002D8DF804000CDD309E012301AA02A93F
S11306D0304600F049FE002840F06A856D1EF4D1D2
S11306E0309605980899099D471875B1309E17F8FA
S11306F0012B02A9304600F027FE002801D46D1E0C
S1130700F5D10028309640F053850C9D3020002D03
S11307108DF804000CDD309E012301AA02A93046A5
S113072000F022FE002840F043856D1EF4D130967F
S11307309DF8400041077FF588AE2020002C8DF8FD
S113074004007FF782AE309D012301AA02A9284646
S113075000F00AFE002840F02B85641EF4D1309589
S113076073E60FF66440059000F0FFBC0E9D002D6B
S113077004D5204600F07CFE044607E02A462046C5
S113078000F092FE002814BF041B2C46089400F0CD
S1130790ECBCD9F8001051F8040BC9F8001020F093
S11307A00004002121F0FF3512ABCDE90245059389
S11307B0DDE9022306993C2413B90AB90E9898B1CD
S11307C002F00F053035641EEEB23A2EA8BF27356D
S11307D0120942EA03721B090D5508BF002A03D00F
S11307E005980D19A842EBD308190590C4F13C02F1
S11307F00E98089282420ADABDF84010821A4FF627
S1130800EF7001400A92ADF8401000F0AEBC002831
S113081040F1AB849DF8400000F01400102840F033
S1130820A4840F9B07990A985B1A1B1A9A1A002A28
S113083040F39B84E5E32B99487820B14FF0FF34D3
S11308400FF65430F8E69DF84200622861D068281B
S113085017D06A283FD06C2806D0712847D0742856
S11308602CD07A281DD064E0D9F8001051F8040B7C
S1130870C9F80010002868D14FF0FF340FF630306B
S1130880DAE6D9F8001051F8040BC9F8001020B9C1
S11308904FF0FF340FF61830CEE60D99018000F0CA
S11308A064BCD9F8001051F8040BC9F800100028F2
S11308B04BD14FF0FF340FF6F820BDE6D9F8001005
S11308C051F8040BC9F8001000283ED14FF0FF3452
S11308D00FF6DC20B0E6D9F8001051F8040BC9F883
S11308E0001080B94FF0FF340FF6C420A4E6D9F805
S11308F0001051F8040BC9F8001020B94FF0FF3470
S11309000FF6AC2098E60D9AD317C0E9002300F047
S11309102CBCD9F8001051F8040BC9F8001020B908
S11309204FF0FF340FF6882086E60D99017000F031
S11309301CBCD9F8001051F8040BC9F8001020B9F8
S11309404FF0FF340FF6682076E60D99016000F051
S11309500CBCD9F80020D21D22F00702C9F80020EF
S1130960D2E900010832C9F80020CDE90201C80F1C
S113097002D007982D210AE0BDF84000810702D576
S113098007982B2103E0C00705D50798202112AA58
S11309901154401C0790DDE90223079912A8CDE900
S11309A02C2308444BF020016129059021AC0BD085
S11309B00E99002902D506210E9105E001BF4BF0E6
S11309C02001672901220E92DDE90223590049150D
S11309D0491C0DD11A030BD0ABF1610503211A2D6B
S11309E0089102D20FF6E41110E00FF6E4110DE0C5
S11309F059004915491C0DD11A030BD1ABF16105FE
S1130A0003211A2D089119D30FF6CC11032200F0FB
S1130A1077FDAAE3DDE90201CDE92E01DDE92E230C
S1130A2023F00047B7F5801F22F000060DD2002204
S1130A30002F08BF002E009203D116E00FF6941188
S1130A40E4E76A4600F0B0FD0FE0DFF8DC08DFF809
S1130A50DC1800EB17500090DDE92E234FF0FF3037
S1130A601940DFF8CC7810403943CDE902014BF04E
S1130A70200061280DD1059830210170821CBBF142
S1130A80610F05920CBF7821582141700798801C92
S1130A900790DDE9020120F0000231F0004308BFB5
S1130AA0002A02D10026002568E14BF02008B8F1A5
S1130AB0610F40F0B4800E98002847BF21210191B6
S1130AC0401C0190019FDDE92C017F1C00220023C2
S1130AD0DDE9024500F0A0FD00998DF8842038BFBF
S1130AE085F00045091F002F00910DF1850653DDA7
S1130AF0204629460022002300F0A6FD4CD24800DF
S1130B00400D00F11C0212D0002A10DD40F2FF73E8
S1130B109A4206DBDFF81C1805F000400143002070
S1130B2011E06FF31E5141EA025120460BE024F01C
S1130B30000035F0004108BF00280FBF29461C22E1
S1130B40294600F099FD04460D4600F033FEFF1FD0
S1130B50002F804609DD00F04BFE02460B4620467E
S1130B60294600F057FE04460D46F01D0721B8F152
S1130B70000F0CDD491E5EBF08F00F0200F8012DC6
S1130B804FEA2818F3D502E0002200F8012D491E8F
S1130B90FAD5C61D002FABDC0DF18500361A01987D
S1130BA08642D8BF304600280DF1850430D4B042C7
S1130BB006DA0DF185010A5C082AA8BF0F2100DAC4
S1130BC00021024621AB134400E0401E13F80159F2
S1130BD0521E8D42F9D00F2904D10DF185018B5C91
S1130BE05B1C8B54002A04D50099091D21AC401CC0
S1130BF00091411E0CD46218ABF13A0613783033DD
S1130C00DDB23A2DA8BFF318491E02F80139F5D513
S1130C100E99002940F1B080421E0E92ACE000997A
S1130C20DFF8142747F29750414391FBF2F2DDE9D4
S1130C302C45009225F00045D2F1070204DD204640
S1130C40294600F04EFB0BE052420020DFF8EC1680
S1130C5000F047FB02460B462046294600F04CFEB6
S1130C600446B8F1660F0E9806BF009F0A370627A0
S1130C703F18142FC8BF142730200D468DF8840068
S1130C800DF18506002F39DD2046294600F058FF76
S1130C9001460A4606F1080304200A26B2FBF6F6CA
S1130CA006EB860EA2EB4E02303203F8012C0A2228
S1130CB0B6FBF2F202EB820EA6EB4E063036401E75
S1130CC003F8026DE9D1083F002F03F10806D9DDCE
S1130CD0084600F049FF02460B462046294600F02C
S1130CE099FD0022DFF8583600F04CFF04460D460B
S1130CF0CAE700BFCBCCCC0CE45000000DF185005A
S1130D00361A0DF1850404E00098401E761E00900A
S1130D10641C20783028F7D0B8F1660F02D100990E
S1130D20491C04E0B8F1650F0CBF012100210E98A5
S1130D3008188642B8BF701E00281DD4B04204DAD9
S1130D40215C3429C8BF392100DC30210246631EEE
S1130D509D1800E0401E15F80169521E8E42F9D01C
S1130D60392902D1A15C491CA154002A04D5009957
S1130D70491C1C46401C00910646009D00F0D4FF0F
S1130D80406A0778DDF8388030B2002802DC01269A
S1130D900FF248644BF02000662808BF6D1C16D083
S1130DA0672846D128B210F1040F48DB404546DAE3
S1130DB09DF840006D1C010703D430B24045B8BF14
S1130DC0804628B2B8EB000848BF4FF000080FFA7D
S1130DD085FBBBF1000F00F3B5800898411C089116
S1130DE0302205990A54B8F1000F03DC9DF8400045
S1130DF0010704D50898411C089105990F5418EB74
S1130E000B0FB8BFC8F100052DB268420B90A8447F
S1130E1032B29045B8BF4646059B089836B209964B
S1130E2032462146184400F06BFBA8EB06000C90F8
S1130E30D2E0BBF1610F17D14FF0700B19E030B263
S1130E40404504DA9DF840100A0758BF8046B8F1BF
S1130E50010848BF4FF00008BBF1670F14BF4FF003
S1130E60450B4FF0650B04E0BBF1410F08BF4FF099
S1130E70500B0898411C0891B8F1000F059914F81B
S1130E80012B0A5403DC9DF8400001071AD5089889
S1130E90411C0891B8F1000F05990F5412DD761E1C
S1130EA030B280450598089BB8BF464632B2214609
S1130EB0184400F025FB089936B271180891A8EB84
S1130EC006000B9005980899084429B2002980F877
S1130ED000B003D42B224270821C04E02D22427005
S1130EE00D46821C6D4200212CAB28460AE00446C4
S1130EF00A2094FBF0F000EB8005A4EB450403F812
S1130F00014B491C00B20028F1DC012906DC4BF03E
S1130F102000652804BF302002F8010B00292CAB07
S1130F2008D1302002F8010B06E0491E585C30302D
S1130F3002F8010B0029F8DC059908980844121AF4
S1130F40099249E030B229B288421CDA0598089B1C
S1130F5032B22146184400F0D3FA089936B2711817
S1130F60ABEB0606B8F1000F08910B9603DC9DF875
S1130F704000020704D5059847540999491C099172
S1130F80CDF8308028E00598089B2AB22146184401
S1130F9000F0B6FA0898761B5844B8F1000F089090
S1130FA003DC9DF840100A0703D5411C08910599FC
S1130FB00F5430B280450598089BB8BF464632B2FC
S1130FC004EB0B01184400F09BFA089836B2301871
S1130FD00890A8EB06000B909DF8400000F0140068
S1130FE0102840F0C280079A08990B988A1809992A
S1130FF082180C988A1882180F98824280F2B58061
S1131000821A0A92B1E09DF84200622808D068284A
S11310100ED06A2814D06C281FD0712810D01CE080
S1131020D9F8001051F8040BC9F80010C0B21AE046
S1131030D9F8001051F8040BC9F8001080B212E07E
S1131040D9F80020D21D22F00702C9F80020D2E905
S113105000010832C9F8002006E0D9F8001051F860
S1131060040BC9F800100021CDE902019DF84000ED
S113107001075AD5DDE90223002B08BF002A54D00A
S11310804BF02000782850D1079812A930220A5436
S1131090401C431C079301F800B046E09DF8420051
S11310A0622808D068280ED06A2814D06C281FD073
S11310B0712810D01CE0D9F8001051F8040BC9F8BD
S11310C0001040B21AE0D9F8001051F8040BC9F826
S11310D0001000B212E0D9F80020D21D22F007025D
S11310E0C9F80020D2E900010832C9F8002006E05E
S11310F0D9F8001051F8040BC9F80010C117CDE954
S11311000201002902D507982D210AE0BDF840000C
S1131110810702D507982B2103E0C00705D507985E
S1131120202112AA1154401C079012A807990144C7
S1131130059102A8594600F04FF816E001200790E7
S1131140D9F8000050F8041BC9F800008DF84810C5
S11311500BE025210122BBF1000F8DF84810079206
S113116003D08DF849B0022107910F9A07980A9984
S11311700C9C121A0898521A0B99121A0998521AAE
S1131180121A9DF84000141B41073FF560AA202065
S1131190002C8DF804007FF75AAA309E25460123BF
S11311A001AA02A9304600F0DFF800283FF44BAA58
S11311B04FF0FF3031B0BDE8F08F00007072696EFF
S11311C074665F733A2062616420257320617267DC
S11311D0756D656E740000002DE9FC4307466F29A8
S11311E03E6908BF082405D041F02000782814BFC8
S11311F00A2410243C25D7E90023642918BF69294F
S11312009046994605D1002B03D5D8F1000869EB27
S11312104909B9F1000F08BFB8F1000F0CD1386BC0
S113122050B9082C39D197F83800010735D530204A
S11312303B2586F83B0030E08DF8001040464946D7
S11312402246E31700F074FD3032D0B26D1E3A2806
S1131250019504DB9DF80000A0F151018A18725534
S1131260404649462246E31700F062FD80465FEAA5
S1131270010908BFB8F1000F03D0F868711988425A
S1131280DCD3082C09D197F83800010705D5705D27
S1131290302802D06D1E30207055C5F13C02BA6171
S11312A07119F960386B824208DA821A3A624FF691
S11312B0EF70398F01403987BDE8F38300280ED5DC
S11312C097F8380000F01400102808D17B6B796976
S11312D0386A5B1A1B1A9A1A002AC8BF3A62BDE818
S11312E0F3832DE9D04306460F4614464FF0000819
S11312F0DFF8509012E0E00707D542464B463046EF
S1131300394600F03FFC06460F46404649464246F1
S11313104B4600F037FC641080468946002CEAD125
S113132030463946BDE8D08302FCFFFFFFFF0F8043
S11313300000E03F0000F07FA08601000000F03FC5
S113134084D797410000244010B503460C4611464B
S1131350A0689847A06020B1E06A401CE0620020C9
S113136010BD4FF0FF3010BDF8B505460E461746C8
S11313701C4600205CB117F8011BB068A847B06098
S113138030B1F06A401CF0620020641EF3D1F2BD5B
S11313904FF0FF30F2BD00007072696E74665F73C7
S11313A03A20256E20646973616C6C6F7765640004
S11313B07072696E74663A2062616420256E2061E1
S11313C07267756D656E7400000000006E616E00DA
S11313D04E414E00696E6600494E4600300030B4FE
S11313E0002513E050F8042BD30744BFA9F10103EF
S11313F09A18091F042942F8045BFAD213468C0791
S113140044BF15809B1CC90748BF1D7050F8041BBE
S11314100029E7D130BC7047C9B202788A421AB1B8
S11314201CBF10F8012FF9E718BF002070472E00E9
S113143080B500B906A005490B681BB12222002122
S1131440984701E000F08CFD222002BD980FFF1F99
S1131450636F6E73747261696E742068616E646C1C
S113146065723A20626164206D657373616765001B
S113147000F10103810704D010F8011B820781B138
S1131480FAD10268A2F10131914311F0803104BF15
S113149050F8042FF6E709BAB1FA81F100EBD10054
S11314A0401CC01A70470000C9B2830706D0521E00
S11314B022D310F8013B9942F7D11FE0083A13D325
S11314C002F1040241EA012141EA014150F8043BDE
S11314D0121F21BF4B40A3F1013C2CEA030C1CF06A
S11314E0803FF3D0C9B2001F083210F8013B521EEE
S11314F028BF91EA030FF8D818BF0120401E704797
S113150062B38B0708D0521E11F8013B00F8013B6F
S113151000F024808B07F6D1830740F0208000BFC1
S1131520103A07D330B4B1E83810103AA0E83810B4
S1131530F9D230BC530724BFB1E80810A0E8081062
S113154044BF51F8043B40F8043BD20724BF31F8B0
S1131550022B20F8022B44BF0B7803707047121F34
S113156017D35B0009D151F8043B20F8023B1B0C54
S1131570121F20F8023BF6D20BE051F8043B00F8AE
S1131580013B1B0A20F8023B1B0C121F00F8013B15
S1131590F3D238BF121D521E24BF11F8013B00F8CC
S11315A0013BF8D87047000010B5144600F002F86B
S11315B0226010BDC1F30A5343B14A0012F5001F63
S11315C028D2A3F2FE32A1EB0251704750EA410C3B
S11315D020D001F0004C31EA0C01B1FA81F204BFD1
S11315E0B0FA80F3D2180B3AB2F120032CBF00FA00
S11315F003F1914041EA0C013EBFC2F1200C20FAF4
S11316000CF319439040524240F2FD33D21A01EBDD
S113161003517047002270474FF4001C1CEB410F2C
S113162094BF1CEB430F09E041EA030C50EA4C0C55
S113163052EA0C0C03D2994208BF9042704714BF7F
S11316408B428242704700004FF4001C1CEB410F98
S113165094BF1CEB430F09E041EA030C50EA4C0C25
S113166052EA0C0C03D28B4208BF8242704714BF6B
S11316709942904270470000124254D440F2FF7CD9
S11316801CEA11530FD0634531D09B1863453CBF0E
S113169001EB0251704701F0004141EA0C51002076
S11316A0AFF30080704750EA410320D001F0004CB2
S11316B091EA0C011CD0B1FA81F30B3B9A420DD98B
S11316C0D21A994051EA0C01C3F1200C20FA0CFC07
S11316D061449840531C40F2FF7CD7E7914041EAB3
S11316E00C01C2F1200C20FA0CF31943904070470E
S11316F0B0FA80F31533202BE0D3202AEED3203A1E
S1131700203B9A4209D9D21A00FA03F141EA0C01AA
S11317100020531C40F2FF7CB8E700FA02F141EAD2
S11317200C0100207047524240F2FF7C1CEA115326
S11317300DD06345DBD0B2EB030C3CBFA1EB0251EF
S113174070470CF1010221EA035141F4801150EA7F
S1131750410CCCD001F0004C352A27DC30B481EAAE
S11317600C01B2F1200309DAC2F12003044601FAA4
S113177003F5D0402843D1409C400CE0C3F1200243
S1131780450020FA03F418BF44F0010421FA03F0E1
S113179091400C43002174F1004550F1000051EBDD
S11317A00C01244230BC7FF47BAF704761460020BB
S11317B076E70000C1F30A5340F2FE329B1A14DDAF
S11317C0D3F120034FEAE17208DDC90241EA505126
S11317D041F00040D84080185040704703F2E13097
S11317E010B1D24382F000407047002070470000DF
S11317F0C11768B14840401AB0FA80F29040D21C38
S1131800C907C2F5846241EA025202EBD0214005C5
S11318107047000070B44FF0004591EA030F40F1A7
S1131820AB836B40841A71EB030603D2001BB141F6
S1131830121973414FF4001C1CEB410F34BF7CEBB5
S1131840430442E00C0DA4EB1356352E4FDC45EA5D
S1131850C323DB0A45EAC121C912B6F120050DDD17
S113186063FA05F6EB4086EA0305124218BF45F019
S11318700105C01851F100010CD213E062FA06F51B
S1131880F2405540F3415A40B340F3405A40801867
S1131890594107D349085FEA30005FEA350528BF9C
S11318A045F0010501F58011420875F1004250F13F
S11318B0000041EB04514E0016F5001F70BC38BF08
S11318C070470020090D090570471CEB410F10D229
S11318D052EA43060BD0BCEB410F05D80C0DAB43C9
S11318E0661E342EB6DD02E0AB438018594170BC4D
S11318F0704770BC70470000F0B540F2FF7581EA94
S1131900030C0CF0004C15EA11541DBF15EA1357D3
S1131910AC42AF42E5E0BC41C1F31301C3F313038E
S1131920801A994143F4801304D2641E4000494153
S113193080185941C90241EA5051B1FBF3F603FB47
S11319401611A2FB0675D7EBC020A94102D2761E60
S113195080185941C90241EA5051B1FBF3FE03FB1F
S11319601E11A2FB0E75D7EBC020A94103D2AEF124
S1131970010E80185941890241EA9051760546EAE0
S11319808E2EB1FBF3F603FB1611A2FB0675D7EB03
S11319908020A94102D2761E80185941C90241EA29
S11319A050514EEA060EB1FBF3F603FB1611A2FBEF
S11319B00675D7EBC020A94102D2761E8018594182
S11319C0C90241EA5051B1FBF3F703FB1711A2FB23
S11319D00735D3EBC020A94167F100070CBF0042D3
S11319E047F0010766F3D5274FEA1E31B80814F50E
S11319F0806412DDBD0775F1004250EB0E5051EBCF
S1131A00045111F5801F5CBF41EA0C01F0BD4CF09C
S1131A107F6141F0E0410020F0BDBD076D0840EA60
S1131A200E5041F48011D4F10104B4F120060ADA15
S1131A30C4F120060200E04001FA06F3E140184335
S1131A40B24015430EE0342C13DCC6F1200445EA01
S1131A5040056D0820FA06F2154321FA06F0A1406C
S1131A600D43002175F1004250F1000051EB0C01CF
S1131A70F0BD00205FEA0C01F0BDCFB992185B41C4
S1131A80B3FA83F704BFB2FA82F6BF190B3FB7F17A
S1131A9020062FBF02FA06F3BB40C7F1200622FA44
S1131AA006F638BF3343BA401CB1E419641E33E769
S1131AB07F4231F00041B1FA81F404BFB0FA80F6FC
S1131AC0A4190B3CB4F120062FBF00FA06F1A14083
S1131AD0C4F1200620FA06F638BF3143A0403C1B6F
S1131AE01AE7AC421ABF05EA1357AF4212E050EAB4
S1131AF041061CBF52EA4306BFE750EA410730469D
S1131B0061461CBF41EA0551F0BD52EA430C08BFCF
S1131B10C143F0BD00204FF4001616EB410F98BFEF
S1131B2016EB430F08BF16EB410F24BFC14305E07A
S1131B3016EB430F0CBF61464CEA0551F0BD0000A3
S1131B40400D491840EA81200CD2490DA1F580616D
S1131B50491C40F0004005DBD1F11F0154BFC840CF
S1131B60C017704700207047014648B1B0FA80F1B1
S1131B708840C91CC1F58461090501EBD0214005E9
S1131B8070470000B0B581EA030C0CF0004C40F241
S1131B90FF7515EA11541DBF15EA1357AC42AF4245
S1131BA039E0E41923EA455343F48013C90241F0B0
S1131BB0004141EA505EC7021100A7FB020200285F
S1131BC04FF00000EEFB01204FF00001E3FB072182
S1131BD018BF42F00102401800214941E3FB0E0105
S1131BE0A4F580640F0302D252004041494154F1EC
S1131BF001046CDD470872F1004250F1000051EB22
S1131C000451A1F580115CBF41EA0C01B0BD4CEA5E
S1131C1005510020B0BD05EA1357AC4214BFAF42D2
S1131C2041E050EA410E1CBF52EA430E02E0614615
S1131C300020B0BD24423C441BD15FEA070EF6D01D
S1131C40090302BF01460020AEF1140EB1FA81F778
S1131C50AEEB070401FA07FE0C37C7F1200100FAC6
S1131C6007F7C8404EEA000E23EA455343F48013B5
S1131C70A2E733F00043B3FA83F704BFB2FA82FE5B
S1131C8077440B3FE41BB7F1200E2FBF02FA0EF38B
S1131C90BB40C7F1200E22FA0EFE38BF43EA0E0302
S1131CA0BA40641C82E750EA410E14BF52EA430E64
S1131CB06FF000014FF4001717EB430F8ABF19466A
S1131CC017EB410FB5E74CEA05510020B0BDD4F144
S1131CD00104B4F120070FDAC4F12007520828BF29
S1131CE042F0010210FA07F501FA07F7E1BF2A43AF
S1131CF0E0403843E1400FE0352C98DCC7F1200484
S1131D0052EA400220FA07F218BF42F0010231FA07
S1131D1007F0A1400A43002172F1004250F1000093
S1131D2051EB0C01B0BD000000487047100CFF1FC0
S1131D30BBBBE1B1B2F5803F80F07E80022A1ED9A0
S1131D408C46B1FBF2F102FB11C31B0443EA1043BE
S1131D50B3FBF2FC02FB1C3380B240EA0343B3FB47
S1131D60F2F002FB103240EA0C4000237047022AD2
S1131D7005D98446B0FBF2F002FB10C270474AB1A9
S1131D8005D100F0010249085FEA300070470022E3
S1131D900023704700F0A6B90B00020000210020C8
S1131DA07047904271EB030CF6D3B3F5803F2FD20A
S1131DB0F0B5B3FA83F7B1FA81F4A7F10F0E3D1B26
S1131DC05340CEF1200602FA0EF2F3415340B5F12E
S1131DD00F0746D80F3C2C444140C4F12006A040D4
S1131DE0F1414140B1FBF3F603FB1611A2FB06459A
S1131DF0001BA94102D2761E8018594180EA0102D3
S1131E0021FA0EF362FA0EF200215A403046F0BD78
S1131E1030B4B1FBF3FC03FB1C11A2FB0C45001B0B
S1131E20A94103D2ACF1010C8018594130BC0246DF
S1131E300B46604600217047B2F1807F65D3F0B550
S1131E40B2FA82F7B1FA81F4C7F10F063D1B22FA08
S1131E5006F307F1110EF24120355A40B5F10F0790
S1131E60B8D94140C4F12006A040F1414140B1FB42
S1131E70F3FC03FB1C11A2FB0C45001BA94103D27C
S1131E80BCF1010C801859410F2F12D30F3FC90325
S1131E9041EA5041B1FBF3F603FB1611A2FB0645E0
S1131EA0D4EBC030A94102D2761E8018594146EACB
S1131EB0CC3C07B34140C7F12006B840F141414052
S1131EC0B1FBF3F603FB1611A2FB0645001BA94167
S1131ED002D2761E8018594180EA010221FA0EF3DB
S1131EE0C7F1200462FA0EF20CFA07F05A402CFAF9
S1131EF004F13043F0BD80EA010221FA0EF300211F
S1131F0062FA0EF260465A40F0BD8C46B1FBF2F123
S1131F1002FB11C31B0243EA1063B3FBF2FC02FB96
S1131F201C331B024CEA002043EA1063B3FBF2FCAF
S1131F3002FB1C331B024CEA002043EA1063B3FB90
S1131F40F2FC02FB1C331B024CEA002043EA106340
S1131F50B3FBF2FC02FB1C324CEA00200023704766
S1131F60012000F0C1B8000070B44FF0004591EAC0
S1131F70030F7FF557AC6B40841A71EB030604D250
S1131F806E40001BB141121973414FF4001C1CEB4D
S1131F90410F34BF7CEB430683E00C0DA4EB1356D6
S1131FA0362E00F37C80012E45EAC32341DC43EA4C
S1131FB0525312BFD20292025B08240545EAC121A2
S1131FC041EA5051D2EBC020994125D407D1B0FA4F
S1131FD080F610FA06F162D00020203608E0B1FA4B
S1131FE081F6B140C6F1200220FA02F21143B0405A
S1131FF04FEAF474B4EB465434F001064FEA740427
S11320000AD8D6F50016760D04F00044F04061FAC3
S113201006F25040F1404840C00A40EA415021F0E5
S1132020004128BF5FEA500550F1000044EBD12184
S113203035E0DB0A45EAC121C90AB6F120050EDD07
S113204042EA0242120CC5F1200603FA06F6EB40FE
S113205042EA06056D42984161F100010DE062FA21
S113206006F5F240554063FA06FC82EA0C02F3409E
S11320705A406D42904161EB030111F4801F05D178
S1132080641E620502D06D004041494121F4801173
S1132090430875F1004350F1000041EB045170BC5A
S11320A070471CEB410F15D223F0004352EA43065C
S11320B00BD04FEA4C0CBCEB410F04D80C0D661E40
S11320C0342EB7DDEBE7801A994150EA410608BF88
S11320D00021E4E708BF1CEB430F28BF6FF00001A9
S11320E0DDE700007047000080B5AFF30080024ACE
S11320F011001820ABBEFBE7260002000000000020
S113210000000000000000000000000000000000CB
S1132110000000000000000000004E6F6E4D61736F
S11321206B61626C65000000004861726446617511
S11321306C740000000000004D656D4D616E6167B8
S1132140656D656E7400004275734661756C74004C
S113215000000000000055736167654661756C748A
S1132160000000000000000000000000000000006B
S1132170000000000000000000000000000000005B
S1132180000000000000000000000000000000004B
S1132190000000000000000000000000000000003B
S11321A000535643616C6C00000000000000000006
S11321B044656275674D6F6E69746F72000000004C
S11321C00000000000000000000000000000506556
S11321D06E64535600000000000000000053797341
S11321E05469636B0000000000000000444D41305E
S11321F00000000000000000000000444D413100D8
S113220000000000000000000000444D41320000C6
S1132210000000000000000000444D4133000000B5
S11322200000000000000000444D413400000000A4
S113223000000000000000444D4135000000000093
S1132240000000000000444D413600000000000082
S11322500000000000444D41370000000000000071
S113226000000000444D4138000000000000000060
S1132270000000444D41390000000000000000004F
S11322800000444D41313000000000000000000017
S113229000444D4131310000000000000000000006
S11322A0444D4131320000000000000000000044B1
S11322B04D41313300000000000000000000444D97
S11322C041313400000000000000000000444D4192
S11322D0313500000000000000000000444D415F63
S11322E04572726F720000000000004D434D000003
S11322F0000000000000000000004654464C0000AE
S1132300000000000000000000526561645F436F3C
S11323106C6C6973696F6E004C56445F4C56570081
S1132320000000000000004C4C57000000000000BA
S11323300000000000005761746368646F67000068
S11323400000000000524E470000000000000000A2
S1132350000000004932433000000000000000008B
S1132360000000493243310000000000000000007A
S1132370000053504930000000000000000000003D
S1132380005350493100000000000000000000002C
S113239053504932000000000000000000000043D8
S11323A0414E305F4F525F4D425F6275660043415C
S11323B04E305F4275735F4F666600000043414EC6
S11323C0305F4572726F72000000000043414E306E
S11323D05F54785F5761726E696E6743414E305F38
S11323E052785F5761726E696E6743414E305F5732
S11323F0616B655F557000000052657365727665A8
S113240064353100000000005265736572766564BE
S11324103532000000000043414E315F4F525F4DA2
S1132420425F6275660043414E315F4275735F4F90
S1132430666600000043414E315F4572726F720060
S11324400000000043414E315F54785F5761726E63
S1132450696E6743414E315F52785F5761726E69AE
S11324606E6743414E315F57616B655F5570000085
S113247000526573657276656435390000000000AA
S1132480526573657276656436300000000000554D
S1132490415254305F52585F545800000000554177
S11324A05254305F45525200000000000055415222
S11324B054315F52585F5458000000005541525443
S11324C0315F455252000000000000554152543221
S11324D05F52585F54580000000055415254325F17
S11324E045525200000000000055415254335F52DF
S11324F0585F54580000000055415254335F455210
S11325005200000000000055415254345F52585F9D
S113251054580000000055415254345F4552520053
S1132520000000000055415254355F52585F545822
S11325300000000055415254355F455252000000DE
S1132540000000414443300000000000000000008F
S1132550000041444331000000000000000000007E
S113256000434D5030000000000000000000000057
S1132570434D503100000000000000000000004303
S11325804D503200000000000000000000004654DE
S11325904D30000000000000000000000046544DD3
S11325A031000000000000000000000046544D32DD
S11325B00000000000000000000000434D54000033
S11325C0000000000000000000005254430000001E
S11325D0000000000000000000526573657276651B
S11325E064383300000000005049543000000000FB
S11325F000000000000000504954310000000000B9
S113260000000000000050495432000000000000A7
S11326100000000000504954330000000000000096
S113262000000000504442300000000000000000A0
S1132630000000555342300000000000000000007C
S113264000005553424443440000000000000000D1
S113265000454E45545F313538385F54696D6572B5
S1132660454E45545F5472616E736D697400004544
S11326704E45545F52656365697665000000454EBA
S113268045545F4572726F72000000000049325376
S113269030000000000000000000000053444843E4
S11326A0000000000000000000000044414330002E
S11326B0000000000000000000004441433100001D
S11326C000000000000000000054534930000000E6
S11326D000000000000000004D434700000000001F
S11326E0000000000000004C5054696D6572000049
S11326F00000000000005265736572766564313035
S11327003200000000504F5254410000000000000D
S113271000000000504F525442000000000000002E
S1132720000000504F52544300000000000000001D
S11327300000504F5254440000000000000000000C
S113274000504F52544500000000000000000000FB
S1132750526573657276656431303800000000524A
S11327606573657276656431303900000000526526
S11327707365727665643131300000000052657310
S1132780657276656431313100000000526573650D
S113279072766564313132000000005265736572EF
S11327A076656431313300000000526573657276DA
S11327B065643131340000000052657365727665DA
S11327C064313135000000005265736572766564CA
S11327D031313600000000526573657276656431EC
S11327E031370000000052657365727665643131DB
S11327F038000000005265736572766564313139C2
S11328000000000000F00F4040F00F4080F00F4047
S1132810C0F00F4000F10F40F0000A1D3000180016
S113282032001801600018186400181A6E00181F8E
S1132830780013187D00131A8200131C8C000E12EA
S113284096000E15A0000E18AA000E1BB4000E1E52
S1132850C8000C1CE1000B1EFA000A1F0001090845
S11328600090044000A0044000B0044000C00440B4
S113287000D0044000C0024000D0024000C00A4022
S113288000A0064000B0064000C0064000D006404C
S113289000A00E4000B00E40FFFFE0071F001FF82D
S11328A0E0FFFF07000000F86A6E6B6C676D4E4F27
S11328B03435363702040101480FFF1F980FFF1FFC
S11328C0480FFF1F480FFF1F00000000480FFF1FA5
S11328D0000000000C0CFF1FF80BFF1F000000009D
S11328E000000000000000000000000000000000E4
S11328F0000000000000000000000000A61400001A
S1132900A6140000A6140000A6140000A6140000DB
S1132910A6140000A6140000FFFFFFFFFFFFFFFF47
S11329202E140000A6140000A6140000FFFFFFFFF1
S1132930FFFF00004001F0000100000010B5DFF8C7
S11329404846DFF8483600220121012000F0ACFBA4
S11329502060DFF83C16292000F04CFEDFF8340636
S11329602168B0FBF1F0DFF83016086010BDF8B54F
S113297001F00BF9040001F00BF90500DFF81C6607
S1132980282070612820F0632820B061200080B2E4
S113299028383064280080B22838F061200080B2E2
S11329A028387064280080B2283830622820B06447
S11329B0280080B2022190FBF1F07062200080B206
S11329C0022190FBF1F0F06400273800C0B2052822
S11329D02EDA4FF4784001F01AF94FF4FA7001F04E
S11329E088FA3800C0B206EB80004069ADF80000F8
S11329F03800C0B206EB8000C06BADF802001F22A5
S1132A000A21009801F01AF9684600F0D3FA002868
S1132A10FAD0BDF800003900C9B246F82100BDF86B
S1132A2002003900C9B206EB810188627F1CCCE741
S1132A304FF4784001F0EBF8300000F063F8002820
S1132A4001D0012000E00020F2BD1CB5040068465E
S1132A5000F0B0FA002845D0DFF840150A6D4B6D40
S1132A60BDF8000000FB03228B6DBDF8020000FBE3
S1132A700322886E92FBF0F02080CA6D0B6EBDF8C5
S1132A80000000FB03224B6EBDF8020000FB032292
S1132A90886E92FBF0F06080B4F9000000B2002868
S1132AA002D50020208009E001F072F8218880B26C
S1132AB0814203D301F06CF8401E2080B4F9020077
S1132AC000B2002802D50020608009E001F05DF822
S1132AD0618880B2814203D301F057F8401E6080C0
S1132AE0012000E0002016BD10B504001C21DFF811
S1132AF0B004A04710BD10B504001C21DFF8A004E9
S1132B00A04710BD2DE9F04F8DB004005FF08F4059
S1132B1004905FF000084546CDF81480CDF8188085
S1132B204646CDF808800027052F41DA404601F0DB
S1132B30F7F90022DFF86C34FFF716FA01F014FA03
S1132B40804654F8270001F043FA029901F052FA42
S1132B50029004EB8700806A01F03AFA310001F038
S1132B6049FA060054F8270054F82710484301F0A6
S1132B702FFA069901F03EFA069004EB8700806A6A
S1132B8004EB8701896A484301F022FA059901F0B0
S1132B9031FA059054F8270004EB8701896A484309
S1132BA001F016FA290001F025FA05007F1CBBE7A5
S1132BB00699059801F090FA81462800290001F051
S1132BC08BFA0100484601F0F3FA414601F084FA19
S1132BD081462800310001F07FFA82460299059867
S1132BE001F07AFA0100504601F0E2FA029901F08C
S1132BF073FA494601F0FEF981460298290001F072
S1132C006BFA82460698310001F066FA01005046DC
S1132C1001F0CEFA310001F05FFA494601F0EAF919
S1132C2003900398E04901F003FB06D20398DF49BF
S1132C3001F010FB01D8002063E10699059801F02A
S1132C404BFA81462800290001F046FA0100484663
S1132C5001F0AEFA039901F00FFB0C90280031004B
S1132C6001F03AFA81460299059801F035FA01001B
S1132C70484601F09DFA039901F0FEFA0990029882
S1132C80290001F029FA81460698310001F024FA5E
S1132C900100484601F08CFA039901F0EDFA08901E
S1132CA00598414601F018FA81463000310001F0E0
S1132CB013FA0100484601F07BFA039901F0DCFAAB
S1132CC00B900298310001F007FA81464046290032
S1132CD001F002FA0100484601F06AFA039901F092
S1132CE0CBFA07900698414601F0F6F9814602991D
S1132CF0029801F0F1F90100484601F059FA0399EC
S1132D0001F0BAFA0A905FF00009CDF80090CDF80E
S1132D1004905FF0000ABAF1050F24DA04EB8A008C
S1132D20406901F055F9494601F064F9814604EB24
S1132D308A00406954F82A10484301F049F901997E
S1132D4001F058F9019004EB8A00406904EB8A0110
S1132D50896A484301F03CF9009901F04BF900906D
S1132D601AF1010AD7E70C98494601F0B5F90700B2
S1132D700999019801F0B0F9390001F03BF9070015
S1132D800899009801F0A8F9390001F033F9049981
S1132D9001F0A2F901F0EEFA20650998494601F024
S1132DA09BF907000B99019801F096F9390001F09D
S1132DB021F907000799009801F08EF9390001F014
S1132DC019F9049901F088F901F0D4FA60650898BA
S1132DD0494601F081F907000799019801F07CF94F
S1132DE0390001F007F907000A99009801F074F915
S1132DF0390001F0FFF8049901F06EF901F0BAFA14
S1132E00A0655FF0000BCDF800B0CDF804B000274A
S1132E10052F23DA04EB8700C06B01F0D9F859467B
S1132E2001F0E8F8834604EB8700C06B54F82710E0
S1132E30484301F0CDF8019901F0DCF8019004EB6E
S1132E408700C06B04EB8701896A484301F0C0F82E
S1132E50009901F0CFF800907F1CD9E70C985946EF
S1132E6001F03AF981460999019801F035F949468A
S1132E7001F0C0F881460899009801F02DF94946FF
S1132E8001F0B8F8049901F027F901F073FAE0654C
S1132E900998594601F020F981460B99019801F0EF
S1132EA01BF9494601F0A6F881460799009801F0FC
S1132EB013F9494601F09EF8049901F00DF901F067
S1132EC059FA20660898594601F006F9814607998F
S1132ED0019801F001F9494601F08CF881460A99FC
S1132EE0009801F0F9F8494601F084F8049901F0DA
S1132EF0F3F801F03FFA6066049801F03BFAA0662B
S1132F0001200DB0BDE8F08F11B585B0022100227B
S1132F1004AC200001F044FA022003900120029046
S1132F2004A8019004A80090002305AA012101200F
S1132F3000F060FA9DF8100000029DF8111008439B
S1132F4080B2C00880B206B010BD70B50400184D40
S1132F50114E3168286841434FF47A70B1FBF0F0A8
S1132F6000F0AEFFD020FFF7CFFF20803168286843
S1132F7041434FF47A70B1FBF0F000F0A1FF9020D0
S1132F80FFF7C2FF608070BDD40EFF1FF04902003E
S1132F9003010A0000127A00D80EFF1FDC0EFF1F87
S1132FA02C0FFF1F0000F03FCDCCCC3DCCCCCCBDD2
S1132FB0C80EFF1F2DE9F04387B004000025182137
S1132FC0002201AE300001F0EBF96846FFF7BDFFC7
S1132FD0BDF80000002805D0BDF8020040F6FF71DE
S1132FE0884201D100205CE001AEBDF80000290058
S1132FF0C9B246F82100BDF8020001A92A00D2B2E4
S113300001EB8201C8606D1C2800C0B20328DCDB20
S11330102800C0B2032843D1DDF80480F7680121F9
S11330200800C0B203280EDA0800C0B256F8200027
S113303010EB080801A80A00D2B200EB8200C068B5
S1133040C719491CECE70320B8FBF0F020800320EB
S1133050B7FBF0F060805FF001094846C0B2032876
S11330601CDA4846C0B256F820002188401A01F004
S1133070CAF9292801DB002013E001A84946C9B296
S113308000EB8100C0686188401A01F0BCF929286E
S113309001DB002005E019F10109DEE7012000E071
S11330A0002007B0BDE8F0832DE9FE4F96B08046BE
S11330B08946DFF81C0501684FF47A70414318987B
S11330C0B1FBF0F0019006A8DFF808154022FEF7E6
S11330D027FA03A8DFF800150A68026000200290AE
S11330E05FF0FF34404640B2002845D1DFF8EC04DD
S11330F0016851F4805101604FF400710F2000F019
S113310079FA4FF40071102000F074FA4FF4007152
S1133110112000F06FFA5FEAC97004D54FF4007112
S11331200E2000F067FA5FEA897004D54FF400714D
S1133130432000F05FFA5FEA497004D54FF4007150
S1133140422000F057FA5FEA097004D54FF4007189
S1133150412000F04FFA5FEAC96004D54FF40071D2
S1133160402000F047FA5FEA89606ED54FF4407161
S1133170372000F03FFA68E0404640B2012835D1DC
S1133180DFF85804016851F4005101604FF40071F4
S11331902B2000F02FFA4FF40071302000F02AFAAF
S11331A04FF40071312000F025FA5FEAC97004D5AC
S11331B04FF400712A2000F01DFA5FEA897004D5EB
S11331C04FF40071802000F015FA5FEA497004D5CD
S11331D04FF40071852000F00DFA5FEA097034D5D0
S11331E04FF40071862000F005FA2EE0404640B20C
S11331F0022825D1DFF8E803016851F48051016009
S11332004FF40071352000F0F5F94FF400713620C9
S113321000F0F0F94FF40071372000F0EBF95FEAA9
S1133220C97004D54FF40071342000F0E3F95FEA6B
S113323089700AD54FF400716F2000F0DBF904E0C7
S11332407B21DFF8A00301F0F7F840F60140DFF836
S11332509813424652B251F822100860DFF88C03EA
S1133260DFF88413424652B251F82210C8629DF925
S11332705C00002840F0A580DFF87403DFF86813D1
S1133280424652B251F8221008600020824650464D
S1133290C0B2102826DA002083465846C0B204285B
S11332A01DDA06A85146C9B250F8211003A85A469F
S11332B0D2B2805C41430E000198301A01F0A3F8A9
S11332C00500A54208D22C005046C0B202905846D0
S11332D0C0B20490002C05D01BF1010BDDE71AF1FC
S11332E0010AD4E74FF47A71DFF8E42213684B4300
S11332F006A8DDF808C050F82CC003A8DDF810E0DB
S113330010F80E0000FB0CFCB3FBFCF005901068F9
S113331001FB00F10598B1FBF0F0400801905FF06B
S1133320FF3004000F208DF8010003208DF8020007
S1133330002007003800C0B2102825DA0121781CCB
S113334081400E000198B0FBF6F0401E40088DF855
S113335000009DF80000042814DA9DF800004000E5
S1133360401C46430198301A01F04DF80500A5426F
S113337008D22C008DF801709DF800008DF8020031
S1133380002C01D07F1CD5E70498000410F44030D1
S1133390029911F00F0108439DF80110090311F47B
S11333A0704108439DF80210890511F44001084357
S11333B050F060508C49424652B251F82210C86015
S11333C007E05FF078508849424652B251F8221023
S11333D0C8608548414649B250F821100968490837
S11333E04900424652B250F822000160059819B0D3
S11333F0BDE8F08F2DE9F0430400079E0898099F6B
S1133400DDF828C00025DFF8E0E1DFF8E081A1461F
S11334104FFA89F95EF82990C9F82C80A0464FFA32
S113342088F85EF82880D8F8008058F44068A146EF
S11334304FFA89F95EF82990C9F80080A0464FFA3E
S113344088F85EF82880D8F82C805FEA8838DAD4C7
S11334505FF00009B94539D288464FFA88F85FEA27
S1133460084818F47C1812F8095055EA080858F06E
S1133470004825006DB25EF82550C5F8348025005B
S11334806DB25EF82550ED6AAD03F8D5002B07D078
S113349025006DB25EF82550AD6B03F8095004E0C9
S11334A025006DB25EF82550AD6B25006DB25EF857
S11334B02550ED6A55F40035A0464FFA88F85EF8B9
S11334C02880C8F82C5019F10109C3E75FF00008FF
S11334D0BCF10105A84539D289464FFA89F95FEA5A
S11334E0094919F47C1916F8085055EA090959F0E4
S11334F0004925006DB25EF82550C5F834902500CA
S11335006DB25EF82550ED6AAD03F8D5002807D0FA
S113351025006DB25EF82550AD6B00F8085004E04C
S113352025006DB25EF82550AD6B25006DB25EF8D6
S11335302550ED6A55F40035A1464FFA89F95EF835
S11335402990C9F82C5018F10108C1E789464FFAAF
S113355089F95FEA094919F47C1916F8085055EA03
S1133560090959F0006925006DB25EF82550C5F8C7
S1133570349025006DB25EF82550ED6AED00F8D563
S113358025006DB25EF82550ED6AAD03F8D500282C
S113359007D025006DB25EF82550AD6B00F80850D9
S11335A004E025006DB25EF82550AD6B25006DB2C8
S11335B05EF82550ED6A55F40035A1464FFA89F9B5
S11335C05EF829E0CEF82C50BDE8F083000000003E
S11335D0D00EFF1FE85A0000E45D00003C80044068
S11335E030800440105C0000880BFF1F00000A1AA2
S11335F000003F8030B42B4B1C684FF40075020070
S1133600D2B2520995402C431C60274B0200D2B21F
S1133610521153F82240012510F01F029540C4F8BE
S1133620A0500200D2B2521153F822200300DBB2A0
S113363013F01F0342F8231030BC704730B4194B09
S11336401C684FF400750200D2B2520995402C4315
S11336501C60154B0200D2B2521153F822400125CE
S113366010F01F029540C4F8A05031F4E06102004C
S1133670D2B2521153F822200400E4B214F01F0411
S113368052F8242012F4E06211430200D2B2521123
S113369053F822200300DBB213F01F0342F8231077
S11336A030BC704738800440740BFF1F70B5002293
S11336B00121282000F054FF002201214D2000F0B8
S11336C04FFF012000F015FC0120DFF8CC14086046
S11336D000F0E2FF5FF0C044E72020805FF0D045B7
S11336E010202880002020800120288001202080B4
S11336F04FF480702880022020804FF4E0602880FE
S11337000320208041F23100288004202080002002
S113371028800820208040F207202880092020806B
S1133720002028800A202080002028800C2020806F
S1133730012028800D202080002028800F20208058
S11337400020288010202080002028801120208044
S11337500720288012202080002028801320208029
S113376000202880642000F0C4FB1020208041F257
S1133770905028801120208040F227202880642047
S113378000F0B7FB122020809C202880642000F0E9
S1133790B0FB132020804FF4C850288029202080BB
S11337A023202880642000F0A4FB20202080002017
S11337B0288021202080002028803020208007209D
S11337C028803120208040F207762E80322020800D
S11337D0062028803520208040F20470288036207E
S11337E0208041F60470288037202080042028801F
S11337F038202080002028803920208040F2067064
S113380028803C20208040F2017028803D202080C8
S11338100F202880642000F06CFB302020800020E2
S113382028803120208040F20360288032202080CC
S113383040F20620288035212180288036202080EF
S1133840042028803720208040F20510288038206A
S1133850208040F201402880392020802E803C20A6
S1133860208040F2026028803D20208004202880AF
S1133870502020800020288051202080EF202880A4
S113388052202080002028805320208040F23F10C6
S11338902880602121804FF42741298061212180E3
S11338A0012129806A212180002129808021218011
S11338B000212980812121800021298082212180E9
S11338C000212980832121800021298084212180D5
S11338D000212980852121800021298090212180B7
S11338E01021298092212180002129809321218087
S11338F003212980952121804FF488712980972103
S113390021800021298098212180002129802B21D8
S113391021800D2129800721218040F27311298003
S11339200721218040F233112980202121800021A8
S11339302980212121802880012000F004F8012021
S11339409649086070BDC0B2042190FBF1F201FBFE
S11339501200934908700100C9B2002905D0022958
S113396025D013D3032933D043E0F0218D4A1180AD
S11339704FF4A0718C4A118003215FF0C042118082
S113398041F298015FF0D042118032E04FF4A0710F
S1133990844A1180F021844A118003215FF0C042DF
S11339A0118041F2B0015FF0D042118021E0F0219A
S11339B07C4A11804FF4A0717B4A118003215FF08F
S11339C0C042118041F2A8015FF0D042118010E0A2
S11339D04FF4A071734A1180F021734A11800321BE
S11339E05FF0C04211804FF484515FF0D0421180E7
S11339F0FFE75FF0C04150220A805FF0D04200230D
S1133A00138051230B80684B1B885B1E1380522349
S1133A100B800023138053230B8062490988491EBD
S1133A201180704713B45E490878002825D15FF0EF
S1133A30C042502010805FF0D041BDF802000880E1
S1133A4051201080BDF80230BDF80600C318581E7E
S1133A50088052201080544B1C88BDF80000241AA2
S1133A60BDF80400241A0C80532010801A88BDF875
S1133A700000121A501E088079E00878012820D12D
S1133A805FF0C041502008805FF0D042BDF80000D4
S1133A90108051200880BDF80030BDF80400C31820
S1133AA0581E108052200880BDF802001080532058
S1133AB00880BDF80210BDF806004118481E1080A9
S1133AC055E00878022825D15FF0C04250201080CC
S1133AD0344B5FF0D0411C88BDF80200241ABDF8B5
S1133AE00600241A0C80512010801B88BDF80200A7
S1133AF01B1A581E088052201080BDF80000088050
S1133B0053201080BDF80020BDF804008218501E18
S1133B1008802CE00878032829D15FF0C0415020A8
S1133B200880214B5FF0D0421C88BDF80000241AA5
S1133B30BDF80400241A1480512008801B88BDF8A5
S1133B4000001B1A581E108052200880154B1C8838
S1133B50BDF80200241ABDF80600241A148053206C
S1133B6008801988BDF80200091A481E10805FF009
S1133B70C040202101805FF0D04100220A80212230
S1133B8002800020088013BC7047064800887047F4
S1133B9005480088704700003410FE432008FE43A7
S1133BA04C0CFF1F480CFF1F4A0CFF1F1CB50421BF
S1133BB0002201AC200000F0F3FBFFF777FDFFF7D4
S1133BC0E7FFADF80000FFF7E0FFADF802004FF4A7
S1133BD078420099019800F001F813BD32B5040051
S1133BE0150000992000FFF71DFFBDF80010BDF877
S1133BF00200414322205FF0C0421080002088422E
S1133C0004D25FF0D0421580401CF8E731BD3EB5C8
S1133C1004000421002201AD280000F0C1FBFFF7DD
S1133C20B4FFADF80200FFF7B3FFADF800002200C7
S1133C3092B200990198FFF7D1FF37BD2DE9F14702
S1133C4083B00C001500FFF7A3FF0600FFF79DFFEC
S1133C500700FFF79DFFBDF80C10814205D2FFF766
S1133C6094FFBDF80E10814203D36021634800F035
S1133C70E3FBBDF80C00210089B2022291FBF2F9AA
S1133C80B0EB0909484600B2002801D5002081465E
S1133C90BDF80CA0200080B2022190FBF1F010EBE3
S1133CA00A0A504600B2310089B2884201DB701E14
S1133CB08246484680B2ADF80400BDF80E00ADF867
S1133CC00600BAEB0900401CADF800000120ADF875
S1133CD002002A0092B200990198FFF77FFFBDF914
S1133CE00E00210089B2022291FBF2F8B0EB080821
S1133CF0404600B2002801D500208046BDF90E9050
S1133D00200080B2022190FBF1F010EB0909484633
S1133D1000B2390089B2884201DB781E8146BDF8C1
S1133D200C00ADF80400ADF806800120ADF80000E9
S1133D30B9EB0800401CADF802002A0092B20099C9
S1133D400198FFF74BFFBDE8FF872DE9F14781B0EC
S1133D500C0015001E002A48D0F800905FF0000AFD
S1133D60FFF716FF0838BDF80410884206DBFFF79A
S1133D700CFF1038BDF80610884200DA3BE04946D3
S1133D800198FFF74FFE22205FF0C0410880002019
S1133D900100C9B210292EDA2100C9B2202901DAA2
S1133DA020210C0017492200D2B2120152FA80F2EB
S1133DB01144B1F5007109780F000021884641468D
S1133DC0C9B2082915DA390603D55FF0D0410D8050
S1133DD002E05FF0D0410E807F001AF1010A5146E3
S1133DE0C9B2082902DB00218A4602E018F1010861
S1133DF0E5E7401CCCE7BDE8F3870000805C0000E9
S1133E003C5E0000204B000071B581B00C00150031
S1133E101E002078002851D0FFF7BAFE0838BDF8FC
S1133E200410884207DA0020ADF80400BDF806004B
S1133E301030ADF80600FFF7A8FE1038BDF80610E4
S1133E40884205DA0020ADF806000020ADF8040031
S1133E5020780A2809D10020ADF80400BDF8060036
S1133E601030ADF80600641CD3E720780D2804D187
S1133E700020ADF80400641CCBE7207809280ED19B
S1133E8033009BB22A0092B220210198FFF75DFF14
S1133E90BDF804000830ADF80400641CB9E7330031
S1133EA09BB22A0092B221780198FFF74EFFBDF829
S1133EB004000830ADF80400641CAAE773BD0000D8
S1133EC010B50400002C13D0B4F1807F03D3292152
S1133ED00E4800F0B1FA0E48002101600D490C6053
S1133EE000210D4A1160052101600168C903FCD558
S1133EF010BD10B504002000441E002804D007485B
S1133F000068FFF7DDFFF6E710BD0000645B00000A
S1133F1010E000E014E000E018E000E0C80EFF1F2D
S1133F20C0F3C75181B1FF2906D0C110400721F069
S1133F30E04101F16051704741020CBF40F4E001DF
S1133F406FF000410020704700F0004100020AD0E9
S1133F50B0FA80FC00FA0CF001F16051A1EB0C51B5
S1133F6001EBD0214005704701F000428B1AA3F108
S1133F706051B1F5801F0ADBB1F17F6F1FD242EAB5
S1133F80C102C10071F1004142EB507070470B1542
S1133F90C3F10903212B10D2890241EA9051800216
S1133FA00128494141F0004121FA03F0C3F1200303
S1133FB0994071F1004150417047100070476FF013
S1133FC0000013EB103F5CBF000E42EAC050704784
S1133FD0C2175040801AB0FA80F10AD08840D1F15B
S1133FE09D01D20742EAC151020672F1004241EB3F
S1133FF01020704790EA010F40F1E08081F0004109
S1134000431A4FF000423EBF5340C01AC91800BFC4
S1134010D3095FEAD05C13EB400F34BFB3EB410F1D
S113402040E07CEBD1530CD342EA012122D8D1EBFE
S1134030402009D3400A28BF5FEA500140EBCC502E
S11340407047401A15D04002B0FA80F2521C9040DA
S1134050400A4FEA3C23B3EB026384BF00EB7300D6
S113406007E040F400001A16DB07C2F10102D04059
S113407018437047182BFCDC31FA03F202FA03F3FD
S1134080591A38BF42F00102D2EB40203CBF400035
S1134090ACF1010C5FEACC5CC20572F100414CEB5F
S11340A05020704713EB400F0FD2C94209D0ACEB3C
S11340B0D153022B03DB4902172BDDDD70479143FB
S11340C0401AC042D5D10020704713EB410FD0D322
S11340D06FF0000070470000FF2212EAD05C1DBFA1
S11340E012EAD153944593422BE09C44D30780EACF
S11340F001021A4043EA002043EA0121A1FB0030F7
S1134100C04238BF40007CF17F010BDBFE294ADA54
S11341105B0842EAC15153EA006373F1004C51EB6E
S113412010207047D1F1080CDCF120012FDB5B0873
S113413010FA01F10B4320FA0CF073F100415041E5
S1134140704794451CBF02EAD153934280EA0102AE
S113415002F000421DD0400019D0490017D05BB9CD
S1134160634514D00902B1FA81F39940BCEB030C06
S1134170C00140F00040C1E70002B0FA80FC10FA30
S11341800CF0B3EB0C0CC90141F00041B6E7100090
S1134190704740000AD0490008D010F1807F94BFD6
S11341A011F1807F02E042F0FF407047D043704736
S11341B090EA010F7FF524AF81F00041421A3CBF21
S11341C0801A89184FF0004CC0F3C752FF2A24D03C
S11341D0C1F3C75313B3D21AD2F1190327DD4CEA42
S11341E001214CFA03F321EA0303D140C20D4CEA46
S11341F00020401834BF20EA0C004CEA5000D205DD
S113420053EA006373EB0C0C52EB1020420012F1E2
S1134210807F38BF7047C00DC0057047490212BF88
S11342209A4200EB5120F8E7D2F11703D9D5704731
S11342304FF0807C1CEB400F94BF1CEB410F05E05A
S113424040EA010C1CEB0C0F01D28842704718BFE6
S1134250814270474FF0807C1CEB400F94BF1CEBF5
S1134260410F05E040EA010C1CEB0C0F01D2814226
S1134270704718BF8842704710B5FF2313EAD05423
S11342801DBF13EAD1529C429A4239E0A41ADA07BC
S113429080EA0103134042EA012142EA0020421A63
S11342A03CBF641E01EB4202090AB2FBF1FE01FBB2
S11342B01E221202B2FBF1F001FB10226EF30F205A
S11342C01202B2FBF1FE4EEA00207F3406DDFE2C22
S11342D024DA53EA500050EBC45010BDD4F1020468
S11342E001FB1E2240F08071192C1DDC21FA04F020
S11342F0C4F12004A140114371F10042584110BDA2
S11343009C421ABF03EAD1529A420FE080EA010E9E
S11343100EF00043400004D0490016D143F0FF40A2
S113432010BD490008BFD343180010BD9C4205D1FD
S1134330D21AF7D001F00041484010BD4A0212BF22
S11343400846484000F0004010BD4AB90902B1FADD
S113435081F2914044B1A418C00140F000409EE7AE
S1134360C90141F0004152420002B0FA80F4A04079
S1134370141B94E7C0F3C7517E390EDDC217D1F187
S1134380200106DD000240F00040C84010445040C7
S11343907047D04380F00040704700207047000011
S11343A062F30F2262F31F42401810F0030308D097
S11343B0C91A1FD3DB0748BF00F8012D28BF20F816
S11343C0022D130030B414461546103928BF20E9D5
S11343D03C00FAD8490728BF20E90C0048BF40F840
S11343E0042D890028BF20F8022D48BF00F8012DB4
S11343F030BC7047C91818BF00F8012DCB0728BF7F
S113440000F8012D7047002848BF40427047000063
S1134410DFF800F07D0CFF1FDFF800F0A70CFF1F92
S1134420BFF34F8F46490A6812F4E06245480243DD
S11344300A60BFF34F8FFEE738B504000D0000207B
S113444000F0B2F92A0021003F4800F0EDF9002005
S113445000F0CAF94FF47A70FFF74BFDF2E738B574
S113446004000D00210049B2032000F0ECFA200002
S113447032BD10B50024042000F000FB042000F03D
S113448037FB002842D1002000F08EF9042000F010
S11344902FFB012801D101200400002000F0A4F921
S11344A02A4800F0C1F94FF4FA70FFF722FD20000A
S11344B0C0B20128EAD1042000F01AFB0028E5D19B
S11344C0042000F015FB002806D1002000F08CF930
S11344D06420FFF70EFDF3E7042000F009FB012838
S11344E006D1002000F080F93220FFF702FDF3E747
S11344F0174800F099F9FFF78BFF6420FFF7F9FCE8
S11345000020FFF789FFFFF78BFFBFE710BD10B551
S113451010480468012000F047F9012000F064F914
S11345200D492200D2B20F2042430A442100C9B2ED
S11345300A4800F079F94FF47A70FFF7DAFCECE7F7
S11345400CED00E00400FA05145D0000BC5D000001
S1134550485D000004ED00E01004FF1F285B00002C
S1134560F8B504000D0016004FF480712000C0B2AD
S1134570FFF740F8280040B2002812D14448210037
S1134580C9B2491150F821102200D2B2521150F888
S113459022004269012314F01F0083409A434A61B8
S11345A038E001213A4A2000C0B2401152F82000FC
S11345B02300DBB25B1152F823305B6914F01F0750
S11345C011FA07F73B4343613000C0B2002811D110
S11345D02000C0B2401152F82000036814F01F00FC
S11345E0814033EA01012000C0B2401152F820009A
S11345F001600FE02000C0B2401152F820000368AF
S113460014F01F00814019432000C0B2401152F839
S113461020000160F1BD38B504001D4D2000C0B27A
S1134620401155F82000406914F01F01C840C0072C
S113463003D47B211748FFF7FFFE2000C0B24011CE
S113464055F82010012214F01F008240CA6031BDC9
S113465038B504000E4D2000C0B2401155F82000BA
S1134660406914F01F01C840C00703D58C210948D4
S1134670FFF7E2FE2000C0B2401155F820000069A7
S113468014F01F04E04010F0010032BD00000000EF
S1134690180BFF1FD85B000080B53D48016851F43A
S11346A0407101603B48016851F0010101604FF421
S11346B0A8616620FEF79EFF4FF4A8616520FEF70F
S11346C099FF4FF4A8616420FEF794FF4FF4A861AA
S11346D06320FEF78FFF4FF4A8616220FEF78AFF84
S11346E04FF4A8614A20FEF785FF4FF4A8614920E2
S11346F0FEF780FF4FF4A8614820FEF77BFF4FF4DC
S1134700A8614720FEF776FF4FF4A8614620FEF724
S113471071FF4FF4A8614520FEF76CFF4FF4A861C8
S11347204420FEF767FF4FF4A8614220FEF762FFC2
S11347304FF4A8614120FEF75DFF4FF4A8614020CB
S1134740FEF758FF4FF4A8613220FEF753FF4FF4F1
S1134750A8613320FEF74EFF4FF4A8616120FEF7F5
S113476049FF4FF4A8614B20FEF744FF4FF4A861C2
S11347704C20FEF73FFF5FF0C04007490860074840
S1134780074908604FF460700649086001BD00BF26
S1134790048004404080044000C000400100000840
S11347A004C0004008C0004010B50400200040B21E
S11347B0042808D2012201211A4823005BB2C05CFC
S11347C0FFF7CEFE0FE0042004002000441E40B298
S11347D0002808D001220121124823005BB2C05CEA
S11347E0FFF7BEFEF1E710BD10B50400200040B293
S11347F0042806D20B48210049B2405CFFF70BFFA6
S11348000DE0042004002000441E40B2002806D01D
S11348100448210049B2405CFFF7FDFEF3E710BDF8
S113482000000000C40BFF1F0EB4C0B5024603A86D
S113483000210190009101AB0121044878440C301F
S1134840FBF7EAFD06BC5DF810FB00BF4F15000046
S11348502DE9F84304000D00200040B2002808D0E0
S1134860022828D016D3042847D035D3052855D09C
S113487065E0DFF8F001016851F4806101604FF4F4
S113488040716620FEF7B6FE4FF440716720FEF7D4
S1134890B1FE54E0DFF8CC01016851F4006101601D
S11348A04FF440714320FEF7A5FE4FF440714420BD
S11348B0FEF7A0FE43E0DFF8AC01016851F480513B
S11348C001604FF440716320FEF794FE4FF4407191
S11348D06220FEF78FFE32E0DFF88801016851F4B0
S11348E0005101604FF440715020FEF783FE4FF4F5
S11348F040715120FEF77EFE21E0DFF86C01016873
S113490051F4806101604FF440714E20FEF772FE55
S11349104FF440714F20FEF76DFE10E0DFF84801C0
S1134920016851F4006101604FF440718920FEF781
S113493061FE4FF440718820FEF75CFEFFE7DFF86C
S11349402C61200040B256F82000C07810F0F3002B
S1134950210049B256F82110C870200040B256F820
S113496020008078210049B256F821108870200078
S113497040B2002803D0200040B2012806D1DFF85D
S1134980F00007684FF47A70474305E0DFF8E4006D
S113499007684FF47A7047432801B7FBF0F84046A4
S11349A080B2B0F5005F02DB41F6FF708046B7FBD2
S11349B0F5F9404680B2B9EB0019484680B2202888
S11349C003DBDC212C48FFF737FD200040B256F80A
S11349D02000007810F0E000C8F304210143220015
S11349E052B256F822201170210049B256F8211013
S11349F081F80180210049B256F82110897A11F01A
S1134A00E00119F01F020A4323005BB256F8233079
S1134A109A72220052B256F82220127C52F0880276
S1134A2023005BB256F823301A74220052B256F8AF
S1134A302220D27852F00C0223005BB256F82330C5
S1134A40DA70BDE8F183094A03005BB252F82330FF
S1134A501B791B06F7D503005BB252F82320D171F2
S1134A60704700003480044028800440940BFF1FEA
S1134A70C80EFF1FD00EFF1F485C000038B50400AD
S1134A80200040B208280EDA244D00220021200024
S1134A9040B2285CFFF764FD0321200040B2285C8B
S1134AA0FEF7CCFD15E0082004002000441E40B2AF
S1134AB000280ED0194D00220021200040B2285CAD
S1134AC0FFF74EFD0321200040B2285CFEF7B6FD3F
S1134AD0EBE731BD10B504001048210049B2405C39
S1134AE0FFF7B6FD002801D1002000E0012010BD31
S1134AF010B50400200040B2FFF7ECFF00280AD1F3
S1134B000A20FFF7F6F9200040B2FFF7E3FF002880
S1134B1001D1002000E0012010BD0000BC0BFF1FEC
S1134B200000000000000000000000000000000081
S1134B300000183C3C3C181818001818000000002D
S1134B40006666662400000000000000000000000B
S1134B500000006C6CFE6C6C6CFE6C6C0000000061
S1134B6018187CC6C2C07C0686C67C1818000000D3
S1134B7000000000C2C60C183060C68600000000A9
S1134B800000386C6C3876DCCCCCCC7600000000AD
S1134B900030303060000000000000000000000021
S1134BA000000C18303030303030180C0000000099
S1134BB0000030180C0C0C0C0C0C18300000000019
S1134BC00000000000663CFF3C660000000000009E
S1134BD0000000000018187E1818000000000000F3
S1134BE00000000000000000001818183000000049
S1134BF000000000000000FE0000000000000000B3
S1134C000000000000000000000018180000000070
S1134C100000000002060C183060C0800000000094
S1134C2000007CC6C6CED6D6E6C6C67C0000000010
S1134C3000001838781818181818187E000000009A
S1134C4000007CC6060C183060C0C6FE00000000E0
S1134C5000007CC606063C060606C67C0000000072
S1134C6000000C1C3C6CCCFE0C0C0C1E0000000064
S1134C700000FEC0C0C0FC0E0606C67C000000009A
S1134C8000003860C0C0FCC6C6C6C67C0000000078
S1134C900000FEC606060C1830303030000000005C
S1134CA000007CC6C6C67CC6C6C6C67C0000000022
S1134CB000007CC6C6C67E0606060C78000000000E
S1134CC00000000018180000001818000000000080
S1134CD00000000018180000001818300000000040
S1134CE0000000060C18306030180C0600000000AC
S1134CF0000000000000FE0000FE000000000000B4
S1134D000000006030180C060C1830600000000031
S1134D1000007CC6C60C1818180018180000000003
S1134D200000007CC6C6DEDEDEDCC07C00000000C5
S1134D30000010386CC6C6FEC6C6C6C60000000019
S1134D400000FC6666667C66666666FC0000000021
S1134D5000003C66C2C0C0C0C0C2663C0000000087
S1134D600000F86C6666666666666CF80000000013
S1134D700000FE6662687868606266FE00000000FB
S1134D800000FE6662687868606060F00000000001
S1134D9000003C66C2C0C0DEC6C6663A0000000021
S1134DA00000C6C6C6C6FEC6C6C6C6C6000000000B
S1134DB000003C18181818181818183C00000000B7
S1134DC000001E0C0C0C0C0CCCCCCC7800000000A9
S1134DD00000E6666C6C78786C6666E6000000009D
S1134DE00000F06060606060606266FE00000000C9
S1134DF00000C6EEFEFED6C6C6C6C6C6000000004B
S1134E000000C6E6F6FEDECEC6C6C6C6000000003A
S1134E100000386CC6C6C6C6C6C66C3800000000A2
S1134E200000FC6666667C60606060F00000000064
S1134E3000007CC6C6C6C6C6C6D6DE7C0C0E000004
S1134E400000FC6666667C6C666666E60000000030
S1134E5000007CC6C660380C06C6C67C0000000094
S1134E6000007E7E5A1818181818183C000000001C
S1134E700000C6C6C6C6C6C6C6C6C67C00000000BC
S1134E800000C6C6C6C6C6C6C66C38100000000000
S1134E900000C6C6C6C6C6D6D6FE6C6C00000000AE
S1134EA00000C6C66C6C38386C6CC6C600000000C6
S1134EB00000666666663C181818183C000000007E
S1134EC00000FEC6860C183060C2C6FE000000005A
S1134ED000003C30303030303030303C00000000D6
S1134EE000000080C0E070381C0E060200000000C4
S1134EF000003C0C0C0C0C0C0C0C0C3C00000000D6
S1134F0010386CC600000000000000000000000023
S1134F1000000000000000000000000000FF00008E
S1134F203030180000000000000000000000000005
S1134F300000000000780C7CCCCCCC760000000093
S1134F400000E06060786C66666666DC0000000065
S1134F5000000000007CC6C0C0C0C67C0000000089
S1134F6000001C0C0C3C6CCCCCCCCC7600000000BB
S1134F7000000000007CC6FEC0C0C67C000000002B
S1134F800000386C6460F060606060F00000000055
S1134F90000000000076CCCCCCCCCC7C0CCC7800CF
S1134FA00000E060606C7666666666E600000000FD
S1134FB000001818003818181818183C00000000D1
S1134FC000000606000E06060606060666663C0097
S1134FD00000E06060666C78786C66E600000000B3
S1134FE000003818181818181818183C0000000089
S1134FF00000000000ECFED6D6D6D6D60000000095
S11350000000000000DC666666666666000000005C
S113501000000000007CC6C6C6C6C67C00000000B6
S11350200000000000DC66666666667C6060F00076
S1135030000000000076CCCCCCCCCC7C0C0C1E0048
S11350400000000000DC7662606060F00000000098
S113505000000000007CC660380CC67C0000000024
S11350600000103030FC30303030361C00000000BE
S11350700000000000CCCCCCCCCCCC7600000000EE
S1135080000000000066666666663C1800000000CA
S11350900000000000C6C6C6D6D6FE6C00000000A4
S11350A00000000000C66C3838386CC600000000F0
S11350B00000000000C6C6C6C6C6C67E060CF800C0
S11350C00000000000FECC183060C6FE00000000A6
S11350D000000E18181870181818180E0000000098
S11350E000001818181800181818181800000000E4
S11350F00000701818180E18181818700000000016
S1135100000076DC00000000000000000000000049
S11351100000000010386CC6C6C6FE000000000087
S1135120DFF800F0810EFF1F10B4DFF888130200CF
S113513052B231F82210020052B2012AC0F26C813C
S1135140020052B2112A80F26781DFF86C23002337
S113515013700B009BB2312B02DA0023537077E0FB
S11351600B009BB2612B02DA0123537070E00B0039
S11351709BB2912B02DA0223537069E00B009BB2BD
S1135180C12B02DA0323537062E00B009BB2F12BB4
S113519002DA042353705BE00B009BB240F221144B
S11351A0A34202DA0523537052E00B009BB240F293
S11351B05114A34202DA0623537049E00B009BB258
S11351C040F28114A34202DA0723537040E00B003B
S11351D09BB240F2B114A34202DA0823537037E0C1
S11351E00B009BB240F2E114A34202DA092353708C
S11351F02EE00B009BB240F21124A34202DA0A23F0
S1135200537025E00B009BB240F24124A34202DA22
S11352100B2353701CE00B009BB240F27124A34299
S113522002DA0C23537013E00B009BB240F2A1246A
S1135230A34202DA0D2353700AE00B009BB240F242
S1135240D124A34202DA0E23537001E00F235370DA
S11352500B009BB21A2B02DA002393706AE00B0056
S11352609BB2332B02DA0123937063E00B009BB2F1
S11352704C2B02DA022393705CE00B009BB2652B8B
S113528002DA0323937055E00B009BB27E2B02DA03
S1135290042393704EE00B009BB2972B02DA052394
S11352A0937047E00B009BB2B02B02DA0623937095
S11352B040E00B009BB2C92B02DA0723937039E05C
S11352C00B009BB2E22B02DA0823937032E00B004E
S11352D09BB2FB2B02DA092393702BE00B009BB2E9
S11352E0B3F58A7F02DA0A23937023E00B009BB2A2
S11352F040F22D14A34202DA0B2393701AE00B0040
S11353009BB2B3F5A37F02DA0C23937012E00B0077
S11353109BB240F25F14A34202DA0D23937009E0BA
S11353200B009BB2B3F5BC7F02DA0E23937001E04D
S11353300F2393700B009BB21A2B02DA0023D37055
S11353406AE00B009BB2332B02DA0123D37063E0D3
S11353500B009BB24C2B02DA0223D3705CE00B00EF
S11353609BB2652B02DA0323D37055E00B009BB28A
S11353707E2B02DA0423D3704EE00B009BB2972BF2
S113538002DA0523D37047E00B009BB2B02B02DA9C
S11353900623D37040E00B009BB2C92B02DA07232B
S11353A0D37039E00B009BB2E22B02DA0823D370EE
S11353B032E00B009BB2FB2B02DA0923D3702BE003
S11353C00B009BB2B3F58A7F02DA0A23D37023E081
S11353D00B009BB240F22D14A34202DA0B23D370CC
S11353E01AE00B009BB2B3F5A37F02DA0C23D3704F
S11353F012E00B009BB240F25F14A34202DA0D23C9
S1135400D37009E00B009BB2B3F5BC7F02DA0E2324
S1135410D37001E00F23D37010BC704770B5040043
S1135420200040B2FFF780FE2448017811F0FD010E
S11354300170017851F010010170214DB8202870DD
S1135440204E3078C006FBD43078C0F381000228A7
S1135450FAD11948C378827841780078FFF760FE62
S11354601448210049B200EB8101897811F01F0131
S1135470154A1170210049B200EB8101C97811F07D
S11354801F0151F04001114A117031788906FCD591
S113549031784906FCD5297811F03F01297031781B
S11354A0C1F381010329FAD164B230F82400C0B2F7
S11354B070BD00002C0BFF1F700BFF1F0140064046
S11354C000400640064006400440064005400640B1
S11354D0DFF800F0F33E0000DFF800F0394400008C
S11354E07B48F021017001780906FCD5007810F0A2
S11354F0710F01D0002000E00120704780B575488D
S1135500016851F4002101607348016851F40021DD
S113551001606F4801780906FBD5F02101700A206B
S1135520FFF7D6FF01BD1CB50400210089B24FF47A
S11355300060414300910920684908709DF8020009
S1135540674908709DF80100664908709DF80000DD
S113555065490870FFF7C4FF002801D100200DE061
S1135560200080B2002808D17FF0010240F20C41F3
S1135570200080B200F003F800E0012016BD7CB5E5
S113558006000C001500310089B24FF4006041435D
S113559011FA84F00190200080B2042190FBF1F212
S11355A001FB1200002803D0EA215048FFF794FFC2
S11355B0200080B240F60101884203DBEC214B4815
S11355C0FFF78AFF9DF80600454908709DF805001D
S11355D0444908709DF804004349087000959DF8FB
S11355E00300434908709DF80200424908709DF881
S11355F00100414908709DF80000404908700620E8
S113560036490870FFF76CFF002801D1002000E044
S1135610012076BD2DE9FC4104000D0016001F0099
S1135620280080B2042190FBF1F201FB1200002853
S113563004D040F22B112D48FFF74EFF280080B212
S113564040F60101884204DB40F22D112748FFF7A0
S113565043FF210089B24FF40060414311FA85F001
S1135660019006201D4908705FF00008300080B2E8
S113567080452AD29DF80600194908709DF8050056
S1135680184908709DF8040017490870386800909C
S11356909DF80300164908709DF80200154908702A
S11356A09DF80100144908709DF800001349087022
S11356B0FFF716FF002801D1002007E00198001D24
S11356C001903F1D18F10408D0E70120BDE8F681E0
S11356D00000024004F0014008F0014007000240CD
S11356E0060002400500024004000240A05B0000E6
S11356F00B0002400A000240090002400800024078
S1135700F0B40F4E3468356855F47F0535600D06E6
S113571015F0706555EA0075170517F470073D43D9
S11357201F0417F470273D43064F3D6000252F00EA
S1135730FFB29F4201D26D1CF9E73460F0BC7047A0
S113574000F0014044800440DFF800F0FF0CFF1F2C
S1135750DFF800F0950DFF1F02005FF4FF200068E2
S11357604E4B984201D000200AE000238B4206D21F
S113577003F5FF2008300078D0545B1CF6E70120C5
S1135780704738B504000D00444A0021FF20FFF79C
S1135790DBFF002801D1002006E023002A0092B29A
S11357A00821FF20FFF7D4FF32BD10B54FF6FF707C
S11357B0FEF72DFA00223A4801683A480068FEF7DD
S11357C00DFA00223848016838480068FEF706FAE6
S11357D000234FF4784230A135480068FEF714FBEB
S11357E0344C62883448016834480068FEF7F6F99E
S11357F0A2883348016833480068FEF7EFF9E2886D
S11358003148016831480068FEF7E8F922893048D8
S1135810016830480068FEF7E1F962892E480168A2
S11358202E480068FEF7DAF9A2892D4801682D4850
S11358300068FEF7D3F9E2892B4801682B48006819
S1135840FEF7CCF910BD11B581B0BDF804002828CD
S11358501ADABDF806001E2190FBF1F004002000C6
S1135860C0B2002808D14FF6FF72214801682148D0
S11358700068FEF7B3F90DE00E482100C9B230F814
S113588011001D49088005E01B4802880321019886
S1135890FEF7D4F913BD0000434C52005AA555AA93
S11358A0EC5D0000E85D0000F45D0000F05D0000C8
S11358B0F85D0000AC0BFF1F005E0000FC5D000003
S11358C0085E0000045E0000105E00000C5E000034
S11358D0185E0000145E0000205E00001C5E0000E4
S11358E0285E0000245E0000305E00002C5E000094
S11358F0385E0000345E00009C0FFF1F80B500F08E
S113590089F800F028F800F00AF8FEF7B2FD012249
S113591001210420FEF724FE00F09CF8FEE710B5F8
S11359202E4C0320FFF77AFD20602D4922684FF4A6
S11359307A7042430A6008682A490968C1F303611E
S1135940491CB0FBF1F0284908605FF4E131032001
S1135950FEF77EFF10BD2DE9F0412449244888421A
S11359600AD000221400B4F5826F05D251F8242025
S113597040F82420641CF6E700F0A0F81D4B1E4AF2
S11359801E498E1A3000461E002804D01078187064
S1135990521C5B1CF6E71A4D1A4C671B3800471E55
S11359A0002803D0002028706D1CF7E7DFF858C0EA
S11359B0DFF858E0DFF85880B8EB0E063000461EDA
S11359C0002808D09EF800008CF800001EF1010E9B
S11359D01CF1010CF2E7BDE8F0810000CC0EFF1FC2
S11359E0C80EFF1F44800440D00EFF1F00000000BB
S11359F00000FF1F1004FF1FFC2000003C290000D2
S1135A00C80EFF1FA00FFF1F500CFF1FD054000033
S1135A104857000080B500F007F80C490A884FF693
S1135A20FE7002400A8001BDEFF3118072B608498E
S1135A304CF220520A804DF628120A800100C9B2A5
S1135A40002900D162B67047000000000020054024
S1135A500E20054080B5FEF7DBFC0620FFF70EF8AC
S1135A606420FEF746FAFEF7A1F80020FDF76BFF6D
S1135A70FCF764FF0620FFF73BF8002802D1FF2063
S1135A80FEF7CAFC0B48FDF72FF8002806D1FCF7F7
S1135A906EFF0028FBD00848FDF72DF8FFF785FEC0
S1135AA06846FCF7D2FF0028FAD00098FFF7CBFE37
S1135AB0F6E700BF595700008357000010B50400F3
S1135AC04FF4007094FBF0F100FB1140002803D068
S1135AD01E210348FEF7B0FC0248046010BD00001C
S1135AE0B85C000008ED00E00200000004000000C3
S1135AF00600000008000000100000002000000064
S1135B0040000000800000000001000000020000CE
S1135B100004000000080000001000000020000045
S1135B2000400000008000000A2A2A2A2A646566D0
S1135B3061756C745F69737220656E7465726564F7
S1135B40206F6E20766563746F722025642A2A2A7A
S1135B502A2A0A0A257320496E7465727275707454
S1135B6000000000443A5C55736572735C3137374A
S1135B7030375C4465736B746F705C5643414E5CA4
S1135B804C696272616C6965735C436869705C4DF1
S1135B904B36305F5379735469636B2E6300000096
S1135BA0443A5C55736572735C31373730375C4403
S1135BB065736B746F705C5643414E5C4C696272E2
S1135BC0616C6965735C436869705C4D4B36305F2A
S1135BD0666C6173682E6300443A5C557365727336
S1135BE05C31373730375C4465736B746F705C5667
S1135BF043414E5C4C696272616C6965735C4368D5
S1135C0069705C4D4B36305F6770696F2E630000BE
S1135C10443A5C55736572735C31373730375C4492
S1135C2065736B746F705C5643414E5C4C69627271
S1135C30616C6965735C436869705C4D4B36305FB9
S1135C407370692E63000000443A5C557365727387
S1135C505C31373730375C4465736B746F705C56F6
S1135C6043414E5C4C696272616C6965735C436864
S1135C7069705C4D4B36305F756172742E63000041
S1135C80443A5C55736572735C31373730375C4422
S1135C9065736B746F705C5643414E5C4C69627201
S1135CA0616C6965735C5663616E5C5643414E5F1B
S1135CB04C43442E63000000443A5C557365727390
S1135CC05C31373730375C4465736B746F705C5686
S1135CD043414E5C4C696272616C6965735C4368F4
S1135CE069705C6D6973632E6300000010B5074929
S1135CF079441831064C7C44163404E00A68081DC3
S1135D00114488470146A142F8D110BD2C0000007F
S1135D1038000000417373657274696F6E206661A8
S1135D20696C656420696E202573206174206C6938
S1135D306E652025640A0000A7B6FFFFD8000000A6
S1135D40C80EFF1F000000000ABDF8D0D0BDE2CB92
S1135D50F8B2D9D7F7A3ACC7EBD6D8D0C2CBA2C878
S1135D60EBB9CCBCFE00000000F00DF8002801D017
S1135D70FFF7BCFFAFF300800020AFF30080FFF714
S1135D8069FE00F002F80120704700F001B800003D
S1135D9007463846FCF7A8F9FBE738B504460D4634
S1135DA0284600F005F8A84218BF0024204632BD5A
S1135DB00149FEF754BB00BFC80BFF1F0ABDF8C85A
S1135DC0EBCBC0D1ADBBB7B5C8B4FDA3A1000000F7
S1135DD0AFF30080AFF30080FFF7C6FF686A6C740E
S1135DE07A4C0000020305072700000001001E0092
S1135DF000001D002800010007000A0000001E002A
S1135E0028001E0000003C0028001E0000005A006C
S1135E1028001E000000780028001E0000009600E4
S1135E2028001E000000B40028001E000000D2005C
S1135E3028001E00280000001801F00008001000CF
S9035DD1CE
